{
  "_format": "hh-sol-artifact-1",
  "contractName": "FlashloanArbitrage",
  "sourceName": "src/blockchain/contracts/FlashloanArbitrage.sol",
  "abi": [
    {
      "anonymous": false,
      "inputs": [
        {
          "indexed": false,
          "internalType": "string",
          "name": "massage",
          "type": "string"
        },
        {
          "indexed": false,
          "internalType": "address",
          "name": "value",
          "type": "address"
        }
      ],
      "name": "log_address",
      "type": "event"
    },
    {
      "anonymous": false,
      "inputs": [
        {
          "indexed": false,
          "internalType": "string",
          "name": "massage",
          "type": "string"
        },
        {
          "indexed": false,
          "internalType": "uint256",
          "name": "value",
          "type": "uint256"
        }
      ],
      "name": "log_uint",
      "type": "event"
    },
    {
      "inputs": [
        {
          "internalType": "address",
          "name": "_sender",
          "type": "address"
        },
        {
          "internalType": "uint256",
          "name": "_amount0",
          "type": "uint256"
        },
        {
          "internalType": "uint256",
          "name": "_amount1",
          "type": "uint256"
        },
        {
          "internalType": "bytes",
          "name": "_data",
          "type": "bytes"
        }
      ],
      "name": "pancakeCall",
      "outputs": [],
      "stateMutability": "nonpayable",
      "type": "function"
    }
  ],
  "bytecode": "0x6080604052603c42016000557310ed43c718714eb63d5aa57b78b54704e256024e600160006101000a81548173ffffffffffffffffffffffffffffffffffffffff021916908373ffffffffffffffffffffffffffffffffffffffff16021790555073ca143ce32fe78f1f7019d7d551a6402fc5350c73600260006101000a81548173ffffffffffffffffffffffffffffffffffffffff021916908373ffffffffffffffffffffffffffffffffffffffff1602179055503480156100c157600080fd5b50610911806100d16000396000f3fe608060405234801561001057600080fd5b506004361061002b5760003560e01c80638480081214610030575b600080fd5b6100db6004803603608081101561004657600080fd5b81019080803573ffffffffffffffffffffffffffffffffffffffff16906020019092919080359060200190929190803590602001909291908035906020019064010000000081111561009757600080fd5b8201836020820111156100a957600080fd5b803590602001918460018302840111640100000000831117156100cb57600080fd5b90919293919293905050506100dd565b005b6060806000848460608110156100f257600080fd5b810190808035906020019064010000000081111561010f57600080fd5b82018360208201111561012157600080fd5b8035906020019184602083028401116401000000008311171561014357600080fd5b919080806020026020016040519081016040528093929190818152602001838360200280828437600081840152601f19601f820116905080830192505050505050509192919290803590602001906401000000008111156101a357600080fd5b8201836020820111156101b557600080fd5b803590602001918460208302840111640100000000831117156101d757600080fd5b919080806020026020016040519081016040528093929190818152602001838360200280828437600081840152601f19601f820116905080830192505050505050509192919290803573ffffffffffffffffffffffffffffffffffffffff16906020019092919050505092509250925060008088146102565787610258565b865b90508260008151811061026757fe5b602002602001015173ffffffffffffffffffffffffffffffffffffffff1663095ea7b383836040518363ffffffff1660e01b8152600401808373ffffffffffffffffffffffffffffffffffffffff1673ffffffffffffffffffffffffffffffffffffffff16815260200182815260200192505050602060405180830381600087803b1580156102f557600080fd5b505af1158015610309573d6000803e3d6000fd5b505050506040513d602081101561031f57600080fd5b8101908080519060200190929190505050506000600160009054906101000a900473ffffffffffffffffffffffffffffffffffffffff1673ffffffffffffffffffffffffffffffffffffffff16631f00ca7483876040518363ffffffff1660e01b81526004018083815260200180602001828103825283818151815260200191508051906020019060200280838360005b838110156103cb5780820151818401526020810190506103b0565b50505050905001935050505060006040518083038186803b1580156103ef57600080fd5b505afa158015610403573d6000803e3d6000fd5b505050506040513d6000823e3d601f19601f82011682018060405250602081101561042d57600080fd5b810190808051604051939291908464010000000082111561044d57600080fd5b8382019150602082018581111561046357600080fd5b825186602082028301116401000000008211171561048057600080fd5b8083526020830192505050908051906020019060200280838360005b838110156104b757808201518184015260208101905061049c565b505050509050016040525050506000815181106104d057fe5b6020026020010151905060008373ffffffffffffffffffffffffffffffffffffffff166338ed173984606461050f60628761084690919063ffffffff16565b8161051657fe5b0488336000546040518663ffffffff1660e01b815260040180868152602001858152602001806020018473ffffffffffffffffffffffffffffffffffffffff1673ffffffffffffffffffffffffffffffffffffffff168152602001838152602001828103825285818151815260200191508051906020019060200280838360005b838110156105b2578082015181840152602081019050610597565b505050509050019650505050505050600060405180830381600087803b1580156105db57600080fd5b505af11580156105ef573d6000803e3d6000fd5b505050506040513d6000823e3d601f19601f82011682018060405250602081101561061957600080fd5b810190808051604051939291908464010000000082111561063957600080fd5b8382019150602082018581111561064f57600080fd5b825186602082028301116401000000008211171561066c57600080fd5b8083526020830192505050908051906020019060200280838360005b838110156106a3578082015181840152602081019050610688565b505050509050016040525050506001815181106106bc57fe5b60200260200101519050846001815181106106d357fe5b602002602001015173ffffffffffffffffffffffffffffffffffffffff1663a9059cbb33846040518363ffffffff1660e01b8152600401808373ffffffffffffffffffffffffffffffffffffffff1673ffffffffffffffffffffffffffffffffffffffff16815260200182815260200192505050602060405180830381600087803b15801561076157600080fd5b505af1158015610775573d6000803e3d6000fd5b505050506040513d602081101561078b57600080fd5b8101908080519060200190929190505050507f3518abf4c2ea1b253c932187f297fe89ded26f2d747874959ae3df0709f587348b60405180806020018373ffffffffffffffffffffffffffffffffffffffff1673ffffffffffffffffffffffffffffffffffffffff1681526020018281038252600c8152602001807f5f73656e6465722069733a2000000000000000000000000000000000000000008152506020019250505060405180910390a15050505050505050505050565b600080821480610863575082828385029250828161086057fe5b04145b6108d5576040517f08c379a00000000000000000000000000000000000000000000000000000000081526004018080602001828103825260148152602001807f64732d6d6174682d6d756c2d6f766572666c6f7700000000000000000000000081525060200191505060405180910390fd5b9291505056fea26469706673582212204bd2347d1efcc71fa008941acd57ca68578c33d2a14289549026ad6a38b0a26064736f6c63430006060033",
  "linkReferences": {},
  "deployedLinkReferences": {}
}